{
  "_format": "hh-sol-artifact-1",
  "contractName": "DocumentMARKETPLACE",
  "sourceName": "contracts/nft_marketplace.sol",
  "abi": [
    {
      "inputs": [],
      "stateMutability": "nonpayable",
      "type": "constructor"
    },
    {
      "inputs": [],
      "name": "ReentrancyGuardReentrantCall",
      "type": "error"
    },
    {
      "anonymous": false,
      "inputs": [
        {
          "indexed": true,
          "internalType": "string",
          "name": "text",
          "type": "string"
        },
        {
          "indexed": true,
          "internalType": "uint256",
          "name": "id",
          "type": "uint256"
        }
      ],
      "name": "documentUploaded",
      "type": "event"
    },
    {
      "anonymous": false,
      "inputs": [
        {
          "indexed": true,
          "internalType": "uint256",
          "name": "id",
          "type": "uint256"
        },
        {
          "indexed": false,
          "internalType": "address",
          "name": "buyer",
          "type": "address"
        },
        {
          "indexed": false,
          "internalType": "uint256",
          "name": "price",
          "type": "uint256"
        }
      ],
      "name": "documentsPurchased",
      "type": "event"
    },
    {
      "inputs": [
        {
          "internalType": "uint256",
          "name": "_id",
          "type": "uint256"
        }
      ],
      "name": "deleteDocument",
      "outputs": [],
      "stateMutability": "nonpayable",
      "type": "function"
    },
    {
      "inputs": [],
      "name": "getAllNFTs",
      "outputs": [
        {
          "components": [
            {
              "internalType": "string",
              "name": "title",
              "type": "string"
            },
            {
              "internalType": "string",
              "name": "description",
              "type": "string"
            },
            {
              "internalType": "string",
              "name": "email",
              "type": "string"
            },
            {
              "internalType": "string",
              "name": "category",
              "type": "string"
            },
            {
              "internalType": "uint256",
              "name": "price",
              "type": "uint256"
            },
            {
              "internalType": "address",
              "name": "owner",
              "type": "address"
            },
            {
              "internalType": "string",
              "name": "image",
              "type": "string"
            },
            {
              "internalType": "string",
              "name": "pdf",
              "type": "string"
            },
            {
              "internalType": "uint256",
              "name": "timestamp",
              "type": "uint256"
            },
            {
              "internalType": "uint256",
              "name": "id",
              "type": "uint256"
            }
          ],
          "internalType": "struct DocumentMARKETPLACE.Documents[]",
          "name": "",
          "type": "tuple[]"
        }
      ],
      "stateMutability": "view",
      "type": "function"
    },
    {
      "inputs": [
        {
          "internalType": "uint256",
          "name": "id",
          "type": "uint256"
        }
      ],
      "name": "getImage",
      "outputs": [
        {
          "internalType": "string",
          "name": "",
          "type": "string"
        },
        {
          "internalType": "string",
          "name": "",
          "type": "string"
        },
        {
          "internalType": "string",
          "name": "",
          "type": "string"
        },
        {
          "internalType": "string",
          "name": "",
          "type": "string"
        },
        {
          "internalType": "uint256",
          "name": "",
          "type": "uint256"
        },
        {
          "internalType": "address",
          "name": "",
          "type": "address"
        },
        {
          "internalType": "string",
          "name": "",
          "type": "string"
        },
        {
          "internalType": "string",
          "name": "",
          "type": "string"
        },
        {
          "internalType": "uint256",
          "name": "",
          "type": "uint256"
        },
        {
          "internalType": "uint256",
          "name": "",
          "type": "uint256"
        }
      ],
      "stateMutability": "view",
      "type": "function"
    },
    {
      "inputs": [],
      "name": "imagesCount",
      "outputs": [
        {
          "internalType": "uint256",
          "name": "",
          "type": "uint256"
        }
      ],
      "stateMutability": "view",
      "type": "function"
    },
    {
      "inputs": [],
      "name": "listingPrice",
      "outputs": [
        {
          "internalType": "uint256",
          "name": "",
          "type": "uint256"
        }
      ],
      "stateMutability": "view",
      "type": "function"
    },
    {
      "inputs": [],
      "name": "platformFeePercent",
      "outputs": [
        {
          "internalType": "uint256",
          "name": "",
          "type": "uint256"
        }
      ],
      "stateMutability": "view",
      "type": "function"
    },
    {
      "inputs": [
        {
          "internalType": "uint256",
          "name": "_id",
          "type": "uint256"
        }
      ],
      "name": "purchaseDocument",
      "outputs": [],
      "stateMutability": "payable",
      "type": "function"
    },
    {
      "inputs": [
        {
          "internalType": "uint256",
          "name": "_price",
          "type": "uint256"
        },
        {
          "internalType": "uint256",
          "name": "id",
          "type": "uint256"
        }
      ],
      "name": "updateBuyingPrice",
      "outputs": [],
      "stateMutability": "nonpayable",
      "type": "function"
    },
    {
      "inputs": [
        {
          "internalType": "uint256",
          "name": "_price",
          "type": "uint256"
        }
      ],
      "name": "updateListingPrice",
      "outputs": [],
      "stateMutability": "nonpayable",
      "type": "function"
    },
    {
      "inputs": [
        {
          "internalType": "address",
          "name": "_owner",
          "type": "address"
        },
        {
          "internalType": "string",
          "name": "_image",
          "type": "string"
        },
        {
          "internalType": "string",
          "name": "_pdf",
          "type": "string"
        },
        {
          "internalType": "string",
          "name": "_title",
          "type": "string"
        },
        {
          "internalType": "string",
          "name": "_description",
          "type": "string"
        },
        {
          "internalType": "string",
          "name": "_email",
          "type": "string"
        },
        {
          "internalType": "string",
          "name": "_category",
          "type": "string"
        },
        {
          "internalType": "uint256",
          "name": "_price",
          "type": "uint256"
        }
      ],
      "name": "uploadIPFS",
      "outputs": [],
      "stateMutability": "payable",
      "type": "function"
    },
    {
      "inputs": [],
      "name": "withdrawFund",
      "outputs": [],
      "stateMutability": "nonpayable",
      "type": "function"
    }
  ],
  "bytecode": "0x60a060405266354a6ba7a18000600155600060025534801561002057600080fd5b5060016000819055503373ffffffffffffffffffffffffffffffffffffffff1660808173ffffffffffffffffffffffffffffffffffffffff168152505060805161287d61008d600039600081816108e601528181610ded0152818161144d01526114dd015261287d6000f3fe60806040526004361061009c5760003560e01c8063a0fb149711610064578063a0fb149714610175578063ae677aa31461019e578063c78f19f9146101c7578063ca34e0a5146101f2578063e0391b091461021b578063e07fa3c1146102465761009c565b80632607aafa146100a1578063404f80e6146100e757806356e224af14610103578063890f710b1461012e5780638c639a851461014a575b600080fd5b3480156100ad57600080fd5b506100c860048036038101906100c391906116b8565b61025d565b6040516100de9a999897969594939291906117c5565b60405180910390f35b61010160048036038101906100fc91906116b8565b6106c5565b005b34801561010f57600080fd5b50610118610a66565b604051610125919061188b565b60405180910390f35b61014860048036038101906101439190611a07565b610a6c565b005b34801561015657600080fd5b5061015f610c84565b60405161016c919061188b565b60405180910390f35b34801561018157600080fd5b5061019c600480360381019061019791906116b8565b610c89565b005b3480156101aa57600080fd5b506101c560048036038101906101c091906116b8565b610deb565b005b3480156101d357600080fd5b506101dc610e83565b6040516101e9919061188b565b60405180910390f35b3480156101fe57600080fd5b5061021960048036038101906102149190611b65565b610e89565b005b34801561022757600080fd5b50610230610f83565b60405161023d9190611dcc565b60405180910390f35b34801561025257600080fd5b5061025b61144b565b005b6060806060806000806060806000806000600360008d81526020019081526020016000206040518061014001604052908160008201805461029d90611e1d565b80601f01602080910402602001604051908101604052809291908181526020018280546102c990611e1d565b80156103165780601f106102eb57610100808354040283529160200191610316565b820191906000526020600020905b8154815290600101906020018083116102f957829003601f168201915b5050505050815260200160018201805461032f90611e1d565b80601f016020809104026020016040519081016040528092919081815260200182805461035b90611e1d565b80156103a85780601f1061037d576101008083540402835291602001916103a8565b820191906000526020600020905b81548152906001019060200180831161038b57829003601f168201915b505050505081526020016002820180546103c190611e1d565b80601f01602080910402602001604051908101604052809291908181526020018280546103ed90611e1d565b801561043a5780601f1061040f5761010080835404028352916020019161043a565b820191906000526020600020905b81548152906001019060200180831161041d57829003601f168201915b5050505050815260200160038201805461045390611e1d565b80601f016020809104026020016040519081016040528092919081815260200182805461047f90611e1d565b80156104cc5780601f106104a1576101008083540402835291602001916104cc565b820191906000526020600020905b8154815290600101906020018083116104af57829003601f168201915b50505050508152602001600482015481526020016005820160009054906101000a900473ffffffffffffffffffffffffffffffffffffffff1673ffffffffffffffffffffffffffffffffffffffff1673ffffffffffffffffffffffffffffffffffffffff16815260200160068201805461054590611e1d565b80601f016020809104026020016040519081016040528092919081815260200182805461057190611e1d565b80156105be5780601f10610593576101008083540402835291602001916105be565b820191906000526020600020905b8154815290600101906020018083116105a157829003601f168201915b505050505081526020016007820180546105d790611e1d565b80601f016020809104026020016040519081016040528092919081815260200182805461060390611e1d565b80156106505780601f1061062557610100808354040283529160200191610650565b820191906000526020600020905b81548152906001019060200180831161063357829003601f168201915b50505050508152602001600882015481526020016009820154815250509050806000015181602001518260400151836060015184608001518560a001518660c001518760e001518861010001518961012001519a509a509a509a509a509a509a509a509a509a50509193959799509193959799565b60006003600083815260200190815260200160002090508060040154341015610723576040517f08c379a000000000000000000000000000000000000000000000000000000000815260040161071a90611e9a565b60405180910390fd5b600073ffffffffffffffffffffffffffffffffffffffff168160050160009054906101000a900473ffffffffffffffffffffffffffffffffffffffff1673ffffffffffffffffffffffffffffffffffffffff16036107b6576040517f08c379a00000000000000000000000000000000000000000000000000000000081526004016107ad90611f06565b60405180910390fd5b3373ffffffffffffffffffffffffffffffffffffffff168160050160009054906101000a900473ffffffffffffffffffffffffffffffffffffffff1673ffffffffffffffffffffffffffffffffffffffff1603610848576040517f08c379a000000000000000000000000000000000000000000000000000000000815260040161083f90611f72565b60405180910390fd5b60006103e8600a3461085a9190611fc1565b6108649190612032565b9050600081346108749190612063565b905060008360050160009054906101000a900473ffffffffffffffffffffffffffffffffffffffff169050338460050160006101000a81548173ffffffffffffffffffffffffffffffffffffffff021916908373ffffffffffffffffffffffffffffffffffffffff16021790555060007f000000000000000000000000000000000000000000000000000000000000000073ffffffffffffffffffffffffffffffffffffffff1684604051610928906120c8565b60006040518083038185875af1925050503d8060008114610965576040519150601f19603f3d011682016040523d82523d6000602084013e61096a565b606091505b5050905060008273ffffffffffffffffffffffffffffffffffffffff1684604051610994906120c8565b60006040518083038185875af1925050503d80600081146109d1576040519150601f19603f3d011682016040523d82523d6000602084013e6109d6565b606091505b505090508080156109e45750815b610a23576040517f08c379a0000000000000000000000000000000000000000000000000000000008152600401610a1a90612129565b60405180910390fd5b867f037ea32fc90bc93d4bb619468c3de3e9e64f0b2875ac1b66154b6af5a857f1eb3334604051610a55929190612149565b60405180910390a250505050505050565b60025481565b600154341015610ab1576040517f08c379a0000000000000000000000000000000000000000000000000000000008152600401610aa8906121be565b60405180910390fd5b60008111610abe57600080fd5b60026000815480929190610ad1906121de565b91905055506040518061014001604052808681526020018581526020018481526020018381526020018281526020018973ffffffffffffffffffffffffffffffffffffffff1681526020018881526020018781526020014281526020016002548152506003600060025481526020019081526020016000206000820151816000019081610b5e91906123d2565b506020820151816001019081610b7491906123d2565b506040820151816002019081610b8a91906123d2565b506060820151816003019081610ba091906123d2565b506080820151816004015560a08201518160050160006101000a81548173ffffffffffffffffffffffffffffffffffffffff021916908373ffffffffffffffffffffffffffffffffffffffff16021790555060c0820151816006019081610c0791906123d2565b5060e0820151816007019081610c1d91906123d2565b5061010082015181600801556101208201518160090155905050600254604051610c46906124fb565b60405180910390207f2d5f902bff88b5888fb537caebb8a1f950cfe019f4d2b76f9e2fe3b4191eb27560405160405180910390a35050505050505050565b600a81565b60006003600083815260200190815260200160002090503373ffffffffffffffffffffffffffffffffffffffff168160050160009054906101000a900473ffffffffffffffffffffffffffffffffffffffff1673ffffffffffffffffffffffffffffffffffffffff1614610d32576040517f08c379a0000000000000000000000000000000000000000000000000000000008152600401610d2990612582565b60405180910390fd5b6003600083815260200190815260200160002060008082016000610d5691906115a8565b600182016000610d6691906115a8565b600282016000610d7691906115a8565b600382016000610d8691906115a8565b60048201600090556005820160006101000a81549073ffffffffffffffffffffffffffffffffffffffff0219169055600682016000610dc591906115a8565b600782016000610dd591906115a8565b6008820160009055600982016000905550505050565b7f000000000000000000000000000000000000000000000000000000000000000073ffffffffffffffffffffffffffffffffffffffff163373ffffffffffffffffffffffffffffffffffffffff1614610e79576040517f08c379a0000000000000000000000000000000000000000000000000000000008152600401610e70906125ee565b60405180910390fd5b8060018190555050565b60015481565b60008211610ecc576040517f08c379a0000000000000000000000000000000000000000000000000000000008152600401610ec39061265a565b60405180910390fd5b60006003600083815260200190815260200160002090508060050160009054906101000a900473ffffffffffffffffffffffffffffffffffffffff1673ffffffffffffffffffffffffffffffffffffffff163373ffffffffffffffffffffffffffffffffffffffff1614610f75576040517f08c379a0000000000000000000000000000000000000000000000000000000008152600401610f6c906126ec565b60405180910390fd5b828160040181905550505050565b6060600060025490506000808267ffffffffffffffff811115610fa957610fa86118dc565b5b604051908082528060200260200182016040528015610fe257816020015b610fcf6115e8565b815260200190600190039081610fc75790505b50905060005b8381101561144157600060036000600184611003919061270c565b81526020019081526020016000209050806040518061014001604052908160008201805461103090611e1d565b80601f016020809104026020016040519081016040528092919081815260200182805461105c90611e1d565b80156110a95780601f1061107e576101008083540402835291602001916110a9565b820191906000526020600020905b81548152906001019060200180831161108c57829003601f168201915b505050505081526020016001820180546110c290611e1d565b80601f01602080910402602001604051908101604052809291908181526020018280546110ee90611e1d565b801561113b5780601f106111105761010080835404028352916020019161113b565b820191906000526020600020905b81548152906001019060200180831161111e57829003601f168201915b5050505050815260200160028201805461115490611e1d565b80601f016020809104026020016040519081016040528092919081815260200182805461118090611e1d565b80156111cd5780601f106111a2576101008083540402835291602001916111cd565b820191906000526020600020905b8154815290600101906020018083116111b057829003601f168201915b505050505081526020016003820180546111e690611e1d565b80601f016020809104026020016040519081016040528092919081815260200182805461121290611e1d565b801561125f5780601f106112345761010080835404028352916020019161125f565b820191906000526020600020905b81548152906001019060200180831161124257829003601f168201915b50505050508152602001600482015481526020016005820160009054906101000a900473ffffffffffffffffffffffffffffffffffffffff1673ffffffffffffffffffffffffffffffffffffffff1673ffffffffffffffffffffffffffffffffffffffff1681526020016006820180546112d890611e1d565b80601f016020809104026020016040519081016040528092919081815260200182805461130490611e1d565b80156113515780601f1061132657610100808354040283529160200191611351565b820191906000526020600020905b81548152906001019060200180831161133457829003601f168201915b5050505050815260200160078201805461136a90611e1d565b80601f016020809104026020016040519081016040528092919081815260200182805461139690611e1d565b80156113e35780601f106113b8576101008083540402835291602001916113e3565b820191906000526020600020905b8154815290600101906020018083116113c657829003601f168201915b505050505081526020016008820154815260200160098201548152505083858151811061141357611412612740565b5b602002602001018190525060018461142b919061270c565b9350508080611439906121de565b915050610fe8565b5080935050505090565b7f000000000000000000000000000000000000000000000000000000000000000073ffffffffffffffffffffffffffffffffffffffff163373ffffffffffffffffffffffffffffffffffffffff16146114d9576040517f08c379a00000000000000000000000000000000000000000000000000000000081526004016114d0906127bb565b60405180910390fd5b60007f000000000000000000000000000000000000000000000000000000000000000073ffffffffffffffffffffffffffffffffffffffff164760405161151f906120c8565b60006040518083038185875af1925050503d806000811461155c576040519150601f19603f3d011682016040523d82523d6000602084013e611561565b606091505b50509050806115a5576040517f08c379a000000000000000000000000000000000000000000000000000000000815260040161159c90612827565b60405180910390fd5b50565b5080546115b490611e1d565b6000825580601f106115c657506115e5565b601f0160209004906000526020600020908101906115e49190611651565b5b50565b6040518061014001604052806060815260200160608152602001606081526020016060815260200160008152602001600073ffffffffffffffffffffffffffffffffffffffff168152602001606081526020016060815260200160008152602001600081525090565b5b8082111561166a576000816000905550600101611652565b5090565b6000604051905090565b600080fd5b600080fd5b6000819050919050565b61169581611682565b81146116a057600080fd5b50565b6000813590506116b28161168c565b92915050565b6000602082840312156116ce576116cd611678565b5b60006116dc848285016116a3565b91505092915050565b600081519050919050565b600082825260208201905092915050565b60005b8381101561171f578082015181840152602081019050611704565b60008484015250505050565b6000601f19601f8301169050919050565b6000611747826116e5565b61175181856116f0565b9350611761818560208601611701565b61176a8161172b565b840191505092915050565b61177e81611682565b82525050565b600073ffffffffffffffffffffffffffffffffffffffff82169050919050565b60006117af82611784565b9050919050565b6117bf816117a4565b82525050565b60006101408201905081810360008301526117e0818d61173c565b905081810360208301526117f4818c61173c565b90508181036040830152611808818b61173c565b9050818103606083015261181c818a61173c565b905061182b6080830189611775565b61183860a08301886117b6565b81810360c083015261184a818761173c565b905081810360e083015261185e818661173c565b905061186e610100830185611775565b61187c610120830184611775565b9b9a5050505050505050505050565b60006020820190506118a06000830184611775565b92915050565b6118af816117a4565b81146118ba57600080fd5b50565b6000813590506118cc816118a6565b92915050565b600080fd5b600080fd5b7f4e487b7100000000000000000000000000000000000000000000000000000000600052604160045260246000fd5b6119148261172b565b810181811067ffffffffffffffff82111715611933576119326118dc565b5b80604052505050565b600061194661166e565b9050611952828261190b565b919050565b600067ffffffffffffffff821115611972576119716118dc565b5b61197b8261172b565b9050602081019050919050565b82818337600083830152505050565b60006119aa6119a584611957565b61193c565b9050828152602081018484840111156119c6576119c56118d7565b5b6119d1848285611988565b509392505050565b600082601f8301126119ee576119ed6118d2565b5b81356119fe848260208601611997565b91505092915050565b600080600080600080600080610100898b031215611a2857611a27611678565b5b6000611a368b828c016118bd565b985050602089013567ffffffffffffffff811115611a5757611a5661167d565b5b611a638b828c016119d9565b975050604089013567ffffffffffffffff811115611a8457611a8361167d565b5b611a908b828c016119d9565b965050606089013567ffffffffffffffff811115611ab157611ab061167d565b5b611abd8b828c016119d9565b955050608089013567ffffffffffffffff811115611ade57611add61167d565b5b611aea8b828c016119d9565b94505060a089013567ffffffffffffffff811115611b0b57611b0a61167d565b5b611b178b828c016119d9565b93505060c089013567ffffffffffffffff811115611b3857611b3761167d565b5b611b448b828c016119d9565b92505060e0611b558b828c016116a3565b9150509295985092959890939650565b60008060408385031215611b7c57611b7b611678565b5b6000611b8a858286016116a3565b9250506020611b9b858286016116a3565b9150509250929050565b600081519050919050565b600082825260208201905092915050565b6000819050602082019050919050565b600082825260208201905092915050565b6000611bed826116e5565b611bf78185611bd1565b9350611c07818560208601611701565b611c108161172b565b840191505092915050565b611c2481611682565b82525050565b611c33816117a4565b82525050565b6000610140830160008301518482036000860152611c578282611be2565b91505060208301518482036020860152611c718282611be2565b91505060408301518482036040860152611c8b8282611be2565b91505060608301518482036060860152611ca58282611be2565b9150506080830151611cba6080860182611c1b565b5060a0830151611ccd60a0860182611c2a565b5060c083015184820360c0860152611ce58282611be2565b91505060e083015184820360e0860152611cff8282611be2565b915050610100830151611d16610100860182611c1b565b50610120830151611d2b610120860182611c1b565b508091505092915050565b6000611d428383611c39565b905092915050565b6000602082019050919050565b6000611d6282611ba5565b611d6c8185611bb0565b935083602082028501611d7e85611bc1565b8060005b85811015611dba5784840389528151611d9b8582611d36565b9450611da683611d4a565b925060208a01995050600181019050611d82565b50829750879550505050505092915050565b60006020820190508181036000830152611de68184611d57565b905092915050565b7f4e487b7100000000000000000000000000000000000000000000000000000000600052602260045260246000fd5b60006002820490506001821680611e3557607f821691505b602082108103611e4857611e47611dee565b5b50919050565b7f6974656d207072696365206973206c657373206f7220696e636f727265637473600082015250565b6000611e846020836116f0565b9150611e8f82611e4e565b602082019050919050565b60006020820190508181036000830152611eb381611e77565b9050919050565b7f446f63756d656e7420646f6573206e6f74206578697374000000000000000000600082015250565b6000611ef06017836116f0565b9150611efb82611eba565b602082019050919050565b60006020820190508181036000830152611f1f81611ee3565b9050919050565b7f63616e6e6f742062757920796f7572206f776e20646f63756d656e7400000000600082015250565b6000611f5c601c836116f0565b9150611f6782611f26565b602082019050919050565b60006020820190508181036000830152611f8b81611f4f565b9050919050565b7f4e487b7100000000000000000000000000000000000000000000000000000000600052601160045260246000fd5b6000611fcc82611682565b9150611fd783611682565b9250828202611fe581611682565b91508282048414831517611ffc57611ffb611f92565b5b5092915050565b7f4e487b7100000000000000000000000000000000000000000000000000000000600052601260045260246000fd5b600061203d82611682565b915061204883611682565b92508261205857612057612003565b5b828204905092915050565b600061206e82611682565b915061207983611682565b925082820390508181111561209157612090611f92565b5b92915050565b600081905092915050565b50565b60006120b2600083612097565b91506120bd826120a2565b600082019050919050565b60006120d3826120a5565b9150819050919050565b7f7472616e73616374696f6e204661696c65640000000000000000000000000000600082015250565b60006121136012836116f0565b915061211e826120dd565b602082019050919050565b6000602082019050818103600083015261214281612106565b9050919050565b600060408201905061215e60008301856117b6565b61216b6020830184611775565b9392505050565b7f496e73756666696369656e74207061796d656e74000000000000000000000000600082015250565b60006121a86014836116f0565b91506121b382612172565b602082019050919050565b600060208201905081810360008301526121d78161219b565b9050919050565b60006121e982611682565b91507fffffffffffffffffffffffffffffffffffffffffffffffffffffffffffffffff820361221b5761221a611f92565b5b600182019050919050565b60008190508160005260206000209050919050565b60006020601f8301049050919050565b600082821b905092915050565b6000600883026122887fffffffffffffffffffffffffffffffffffffffffffffffffffffffffffffffff8261224b565b612292868361224b565b95508019841693508086168417925050509392505050565b6000819050919050565b60006122cf6122ca6122c584611682565b6122aa565b611682565b9050919050565b6000819050919050565b6122e9836122b4565b6122fd6122f5826122d6565b848454612258565b825550505050565b600090565b612312612305565b61231d8184846122e0565b505050565b5b818110156123415761233660008261230a565b600181019050612323565b5050565b601f8211156123865761235781612226565b6123608461223b565b8101602085101561236f578190505b61238361237b8561223b565b830182612322565b50505b505050565b600082821c905092915050565b60006123a96000198460080261238b565b1980831691505092915050565b60006123c28383612398565b9150826002028217905092915050565b6123db826116e5565b67ffffffffffffffff8111156123f4576123f36118dc565b5b6123fe8254611e1d565b612409828285612345565b600060209050601f83116001811461243c576000841561242a578287015190505b61243485826123b6565b86555061249c565b601f19841661244a86612226565b60005b828110156124725784890151825560018201915060208501945060208101905061244d565b8683101561248f578489015161248b601f891682612398565b8355505b6001600288020188555050505b505050505050565b600081905092915050565b7f446f63756d656e742075706c6f61646564207375636365737366756c6c790000600082015250565b60006124e5601e836124a4565b91506124f0826124af565b601e82019050919050565b6000612506826124d8565b9150819050919050565b7f796f752063616e6e6f742064656c657465206f746865727320646f63756d656e60008201527f7400000000000000000000000000000000000000000000000000000000000000602082015250565b600061256c6021836116f0565b915061257782612510565b604082019050919050565b6000602082019050818103600083015261259b8161255f565b9050919050565b7f6f6e6c79206f776e65722063616e2063616c6c00000000000000000000000000600082015250565b60006125d86013836116f0565b91506125e3826125a2565b602082019050919050565b60006020820190508181036000830152612607816125cb565b9050919050565b7f70726963652073686f756c6420626520677261746572207468656e2030000000600082015250565b6000612644601d836116f0565b915061264f8261260e565b602082019050919050565b6000602082019050818103600083015261267381612637565b9050919050565b7f4f6e6c792074686520646f63756d656e74206f776e65722063616e207570646160008201527f7465207072696365000000000000000000000000000000000000000000000000602082015250565b60006126d66028836116f0565b91506126e18261267a565b604082019050919050565b60006020820190508181036000830152612705816126c9565b9050919050565b600061271782611682565b915061272283611682565b925082820190508082111561273a57612739611f92565b5b92915050565b7f4e487b7100000000000000000000000000000000000000000000000000000000600052603260045260246000fd5b7f796f7520617265206e6f7420746865206f776e65720000000000000000000000600082015250565b60006127a56015836116f0565b91506127b08261276f565b602082019050919050565b600060208201905081810360008301526127d481612798565b9050919050565b7f7472616e73616374696f6e206661696c65640000000000000000000000000000600082015250565b60006128116012836116f0565b915061281c826127db565b602082019050919050565b6000602082019050818103600083015261284081612804565b905091905056fea2646970667358221220132c738aa659871191f1e9b9bdff2bbd1d67325b582548efa426e798407608c664736f6c63430008140033",
  "linkReferences": {},
  "deployedLinkReferences": {}
}